:030000000202D227
:0C02D200787FE4F6D8FD75813A0203192C
:1003D4003D3D3D3D2D2D2D2D2D2D2D2D3D3D3D3DC9
:1003E4000020202047414D45204F564552212120D1
:1003F400200020507265737320232072657374612A
:100404007274007E7E7E7E7E7E7E7E7E7E7E7E7E9C
:100414007E7E7E00202020202050415553454420DC
:100424002020202000202050726573732023207226
:060434006573756D6500A3
:05057300C102011200AD
:09018E001205EB12059F1205B3E6
:100197001206328F2112050930020512035EC202D0
:1001A700E4F522E522C3940450E6E4F523742425FC
:1001B70023F876200523E523B410F2E4F53412067C
:1001C7003B5039E522700A7BFF7A0379D4FF12048A
:1001D70089E522B4010B7BFF7A0379E57F011204DD
:1001E70089E522B4020B7BFF7A0379F67F021204BA
:1001F70089E522640360030202CD803C1206385071
:1002070042E522700A7BFF7A0379D4FF120489E55D
:1002170022B4010B7BFF7A0479187F01120489E568
:1002270022B4020B7BFF7A0479297F02120489E545
:1002370022640360030202CD7BFF7A0479077F0300
:100247000202CA12062B78367C007D007E007F01F1
:100257001200DE120624EFB5221B12062B78397C1A
:10026700007D007E007F011200DE7B007A0079248A
:100277007D50120554E4F52312063EE523C39F5033
:100287003AAF2312000378367C007D007E007F01A1
:100297001200DE120624EFB5221DAF2312000378E9
:1002A700397C007D007E007F011200DE7B007A0032
:1002B70079247D2A120554052380BD7B007A0079B5
:0B02C70024AF2212048905220201AAC4
:03000B0002043AB2
:10043A00C0E0C0F0C083C082C0D075D000C000C088
:0D044A0001C002C003C004C005C006C00709
:10045700758C3C758AB005121204D4E512C3940654
:070467004005751200D202EE
:10046E00D007D006D005D004D003D002D001D000E2
:0B047E00D0D0D082D083D0F0D0E0328C
:1005EB00758901758C3C758AB0D2A9D28CD2AF2299
:10059F007F381205D97F0C1205D97F061205D97F36
:0405AF00010205D967
:1005C700D290C2918FA0D2927F0A7E00120534C2C8
:0205D70092226E
:1005D900C290C2918FA0D2927F0A7E00120534C2C6
:0205E90092225C
:060489008B358A3689372D
:10048F00EF14600F14601114601324037036753964
:10049F0080800D7539C0800875399080037539D00B
:1004AF00AF391205D9E4F538AB35AA36A9378538F7
:1004BF008275830012011DFF1205C70538E538C389
:0404CF00941040E461
:0104D3002206
:0D057800010C0002080000010A00010B0048
:1004D400E4FF20B2047F0C800C20B0047F0280056E
:1004E40020B1027F087408250AF8A607630A01E50B
:1004F40008B50910600B650B600A85080C85080BAC
:0405040022E4F50BED
:0105080022D0
:05063200AF0CE4F50C23
:0106370022A0
:04058500C101C100EF
:1005B300751110750D0F750E1C750F2B751039C243
:0405C30001C200224F
:07062400E536C45403FF2278
:0F058A00783A7C007D007B007E007F011200DE4E
:06059900E53A540FFF22B9
:0D060A001201045430600574F012014A2200
:0F05FB00120104543064306005741012014A225A
:0D061700120104540F600574FF12014A2205
:10050900BF0C093000030205B3B2012220011B20F0
:100519000018BF02097B007A00791112060ABF0888
:0B052900097B007A0079111205FB220B
:10035E0020017220006FE4F535740D2535F9E4FAAD
:10036E00FB120617740D2535F9E4783A7C00FDFE74
:10037E00120594C0077A00791112058AAE07D007CC
:10038E00EF6E7038740D2535F9E4FAFB78367C0083
:10039E00FDFE7F011200DE120624C00778367C00B7
:1003AE007D007B007A0079117E007F011200DE1243
:1003BE000624AE07D007EFB50602D2000535E535A7
:0503CE00C394044094FB
:0103D3002207
:03063800A20122FA
:03063B00A20022F8
:07062B007B007A0079112227
:08000300740D2FF9E4FAFB2251
:03063E007F042214
:100554008B358A3689378D387A00793912058AAB1A
:0F05640035AA36A9378F82758300E53802016CFE
:10053400E4FDFCC3ED9FEC9E5015E4FBFA0BBB00FD
:0F054400010AEB64784A70F50DBD00010C80E4EC
:010553002285
:1002DE0002018EE493A3F8E493A34003F68001F2A7
:1002EE0008DFF48029E493A3F85407240CC8C33321
:1002FE00C4540F4420C8834004F456800146F6DFF0
:10030E00E4800B0102040810204080900573E47E07
:10031E00019360BCA3FF543F30E509541FFEE493E4
:10032E00A360010ECF54C025E060A840B8E493A3AB
:10033E00FAE493A3F8E493A3C8C582C8CAC583CAD6
:10034E00F0A3C8C582C8CAC583CADFE9DEE780BE8E
:010589000071
:10000E00E709F608DFFA8046E709F208DFFA803ED4
:10001E0088828C83E709F0A3DFFA8032E309F608C1
:10002E00DFFA8078E309F208DFFA807088828C8329
:10003E00E309F0A3DFFA806489828A83E0A3F608DD
:10004E00DFFA805889828A83E0A3F208DFFA804CB7
:10005E0080D280FA80C680D4806980F2803380108E
:10006E0080A680EA809A80A880DA80E280CA8033F7
:10007E0089828A83ECFAE493A3C8C582C8CCC5836F
:10008E00CCF0A3C8C582C8CCC583CCDFE9DEE7803F
:10009E000D89828A83E493A3F608DFF9ECFAA9F0BE
:1000AE00EDFB2289828A83ECFAE0A3C8C582C8CC14
:1000BE00C583CCF0A3C8C582C8CCC583CCDFEADE2D
:1000CE00E880DB89828A83E493A3F208DFF980CC8F
:1000DE0088F0EF60010E4E60C388F0ED2402B40488
:1000EE000050B9F582EB2402B4040050AF2323452F
:0600FE00822390005E73F6
:10010400BB010689828A83E0225002E722BBFE02F9
:09011400E32289828A83E493222C
:10011D00BB010CE58229F582E5833AF583E0225097
:10012D0006E92582F8E622BBFE06E92582F8E222E1
:0D013D00E58229F582E5833AF583E49322FB
:10014A00BB010989828A83F8E028F022500327F745
:10015A0022BBFE05F8E328F3228A838982F8E49316
:02016A00282249
:10016C00F8BB010DE58229F582E5833AF583E8F0C9
:10017C00225006E92582C8F622BBFE05E92582C875
:02018C00F2225D
:00000001FF
