:030000000203F206
:0C03F200787FE4F6D8FD75815C020439C8
:100643008080C0C0600080C080C0C000030203027D
:04065300010200019F
:1004C30010480000000000000000000000000000D1
:1004D3000000014500035A000000014403014300EA
:1004E300014700014200015914015800014604C1AB
:0B04F30001C102C100014000014100F6
:1005F40012061012053312047E1203613001F72033
:0C06040000F42002F1C2011204FF80EAA1
:10062A00E4FEEEC39F50117D7D7C00ED1DAA04708F
:08063A00011C4A70F60E80EA73
:010642002295
:10061000758911758CFC758A18D2A9758D3C758BFE
:0A062000B0D2ABD28CD28ED2AF2242
:03000B0002001ED2
:10001E00C0E0C0F0C083C082C0D075D000C000C0A8
:0D002E0001C002C003C004C005C006C00729
:10003B00758CFC758A1874482558F8E6F53AE55C1A
:10004B00455B455A7003020136300203020136301C
:10005B000003020136E54590064F93F53C753B00D6
:10006B00C3E53C6480F8E53B6480984003020136AD
:10007B00AF3CEF3395E0FEEF24FFFFEE34FFFEAD18
:10008B003BED3395E0FCC3EF9DFFEE9CFEC3E55CBF
:10009B009FF9E55B9E855A3DF53E893F744825588F
:1000AB00F9E4FAFBE53D853E83853F827007E96500
:1000BB00827002E583706FAF3BEF3395E0FEE54551
:1000CB0075F003A42443F582E43406F583E5822F0F
:1000DB00F582E5833EF583E493FFE5459006539364
:1000EB00FEC3E5449EFEEFFD7C00D3EE648094805E
:1000FB004011A8067E00ED088005CEC313CE13D8A1
:10010B00F9801BC3EE648094805016EEF404FFAEAE
:10011B0004EDA807088005C333CE33CED8F9FDAC68
:10012B0006ED423A8005053B02006BE4FFFE12052B
:10013B00B7853AA07E007401A858088005C333CE5A
:10014B0033CED8F9FF1205B70558E558C3941040C4
:04015B0003755800D0
:10015F00D007D006D005D004D003D002D001D000F4
:0B016F00D0D0D082D083D0F0D0E0329E
:03001B000205D704
:0405D700C0E0C0D0F0
:1005DB00758D3C758BB00540E540C395594005754D
:0405EB004000D201F9
:0505EF00D0D0D0E03285
:1005B700E4FDEE30E703D38001C39290C291D2915C
:0F05C700EF25E0FFEE33FE0DBD10E7C292D2929A
:0105D6002202
:10047E0020B00E7F0A12062A20B00630B0FDE4F539
:10048E004620B10E7F0A12062A20B10630B1FD7544
:10049E00460120B20E7F0A12062A20B20630B2FDA5
:1004AE0075460220B40E7F0A12062A20B40630B416
:0504BE00FD754603225C
:10036100E546640470030203F1E546146035146048
:100371005D14606F24037075E55C455B455A606DE3
:10038100E544D394004066200263200060AB5AAA82
:100391005BA95CE54414FD85453312028B504E1573
:1003A10044804AE55C455B455A6042E544C3940795
:1003B100503B200238200035AB5AAA5BA95CE544CA
:1003C10004FD85453312028B50230544801FE55CF3
:1003D100455B455A6017200214200011C201120426
:1003E100FF800A3002051205618002B200754604E1
:0103F10022E9
:1004FF00E55C455B455A602B200228AB5AE55C242E
:10050F0001F9E4355BFA8B21F5228923854533AD5B
:10051F004412028B500A85215A85225B85235C2267
:03052F0012017A3C
:0105320022A6
:06028B008B2F8A3089313F
:10029100E53390064F93F534E53390065393FFC34E
:1002A100ED9FF535E4F536E536C395344003020399
:1002B1005FE53424FFFFE434FFFEC3EF9536FFEE24
:1002C1009400FEC3E5319FF9E5309E852F37F5385F
:1002D1008939FAC3900048E99582EA9583400CD3A5
:1002E100900057E99582EA95834002C322E5337570
:1002F100F003A42443F582E43406F583E582253630
:10030100F582E43583F583E493FF7E00D3E535641C
:100311008094804010EFA835088005CEC313CE131A
:10032100D8F9FF801CC3E535648094805013E5350E
:10033100F404FDEFA805088005C333CE33CED8F908
:10034100FFD3EF94FFEE9400400122AB37AA38A906
:0F0351003912058C5F6002C32205360202A8D361
:01036000227A
:10017A00E54590064F93F524E54590065393FFC352
:10018A00E5449FF525E4F526E526C39524400302B8
:10019A00022EE52424FFFFE434FFFEC3EF9526FF79
:1001AA00EE9400FEC3E55C9FF9E55B9E855A29F54E
:1001BA002A892BE54575F003A42443F582E4340625
:1001CA00F583E5822526F582E43583F583E4937584
:1001DA002700F528D3E525648094804012AE27E5F0
:1001EA0028A825088005CEC313CE13D8F9801EC3CC
:1001FA00E525648094805019E525F404FFAE27E5CF
:10020A0028A807088005C333CE33CED8F9F5288E3F
:10021A0027AB29AA2AA92B12058C45281205A50560
:04022A002602019215
:0C022E00752C0F7448252CF8E6F47025A0
:10023A00852C2DE52DD3940040127447252DF8E620
:10024A00FF7448252DF8A607152D80E7E4F5480523
:05025A00430547052CDF
:0B025F00152CC3E52C6480948050C770
:10026A00E54775F00584E5F07014E547D39400403E
:10027A000DE559D39405400615591559054202054D
:01028A003340
:0D053300854145E541045403F5417544033D
:10054000E54590064F93F52E2447F9E4FAFBF55A5A
:04055000F55B895C72
:0C055400854533AD4412028B4002D202F8
:010560002278
:100561007F107848E4F608DFFC755A00755B00756A
:100571005C00C202C200C201E4F543F547F54275D1
:0B05810059147544037546040205334D
:1003FE000205F4E493A3F8E493A34003F68001F21C
:10040E0008DFF48029E493A3F85407240CC8C333FF
:10041E00C4540F4420C8834004F456800146F6DFCE
:10042E00E4800B01020408102040809004C3E47E97
:10043E00019360BCA3FF543F30E509541FFEE493C3
:10044E00A360010ECF54C025E060A840B8E493A38A
:10045E00FAE493A3F8E493A3C8C582C8CAC583CAB5
:10046E00F0A3C8C582C8CAC583CADFE9DEE780BE6D
:0104FE0000FD
:10058C00BB010689828A83E0225002E722BBFE026D
:09059C00E32289828A83E49322A0
:1005A500BB010689828A83F0225002F722BBFE0135
:0205B500F3222F
:00000001FF
