:030000000202AF4A
:0C02AF00787FE4F6D8FD75813A0202F673
:04057600C101C100FE
:10052A00750C1075080F75091C750A2B750B39C2E5
:04053A0001C20022D8
:0705BF00E536C45403FF22DE
:0F051500783A7C007D007B007E007F011200DEC3
:06052400E53A540FFF222E
:0D05A5001201045430600574F012014A2266
:0F059600120104543064306005741012014A22BF
:0D05B200120104540F600574FF12014A226B
:10048E00BF0C0930000302052AB2012220011B20F5
:10049E000018BF02097B007A00790C1205A5BF086F
:0B04AE00097B007A00790C12059622F1
:10033B0020017220006FE4F53574082535F9E4FAD5
:10034B00FB1205B274082535F9E4783A7C00FDFE02
:10035B0012051FC0077A00790C120515AE07D007DE
:10036B00EF6E703874082535F9E4FAFB78367C00AB
:10037B00FDFE7F011200DE1205BFC00778367C0040
:10038B007D007B007A00790C7E007F011200DE126B
:10039B0005BFAE07D007EFB50602D2000535E53530
:0503AB00C3940440941E
:0103B000222A
:0305CD00A2012266
:0305D000A2002264
:0705C6007B007A00790C2292
:0800030074082FF9E4FAFB2256
:0305D3007F042280
:1004D9008B358A3689378D387A007939120515AB0B
:0F04E90035AA36A9378F82758300E53802016C7A
:06057A00010D00010E005E
:10045200E4FFC2B020B5027F02D2B0C2B1D2B1C2B3
:10046200B220B5027F08D2B2C2B320B6027F0CD24C
:10047200B3EFB50D0F600D050EE50EB40209E4F5FC
:0B0482000E8F0D22E4F50E8F0D7F00A1
:01048D00224C
:10053E007F381205647F0C1205647F061205647FF6
:04054E00010205643D
:10055200D290C2918FA0D2927F0A7E001204B9C2B9
:020562009222E3
:10056400C290C2918FA0D2927F0A7E001204B9C2B7
:020574009222D1
:060407008B358A368937AF
:10040D00EF14600F146011146013240370367539E6
:10041D0080800D7539C0800875399080037539D08D
:10042D00AF39120564E4F538AB35AA36A9378538EE
:10043D008275830012011DFF1205520538E538C380
:04044D00941040E4E3
:010451002288
:1003B10020202047414D45204F56455221212020E4
:1003C100002050726573732023207265737461720B
:1003D10074002020202020202020202020202020E8
:1003E100202000202020202050415553454420202A
:1003F1002020200020205072657373202320726515
:0604010073756D6520001B
:05058000C102010F00A3
:09018E0012058612053E12052A35
:100197001204528F2112048E30020512033BC20251
:1001A700E4F522E522C3940450E6E4F523742425FC
:1001B70023F876200523E523B410F2E4F53412057D
:1001C700D05034E522B4010B7BFF7A0379B17F016C
:1001D700120407E522B4020B7BFF7A0379C27F0280
:1001E700120407E522640360030202AA7BFF7A0375
:1001F70079D37F030202A71205CD5024E522B4016B
:100207000B7BFF7A0379E47F01120407E52264027E
:1002170060030202AA7BFF7A0379F57F020202A735
:100227001205C678367C007D007E007F011200DE55
:100237001205BFEFB5221B1205C678397C007D0079
:100247007E007F011200DE7B007A0079247D501248
:1002570004D9E4F5231205D3E523C39F503AAF230E
:1002670012000378367C007D007E007F011200DEDD
:100277001205BFEFB5221DAF2312000378397C00AA
:100287007D007E007F011200DE7B007A0079247DED
:100297002A1204D9052380BD7B007A007924AF2276
:0802A70012040705220201AA5E
:03000B000204F8F4
:0404F800C0E0C0D0D0
:1004FC00758C3C758AB0050FE50FC39406400575E5
:04050C000F00D20208
:05051000D0D0D0E03264
:10058600758901758C3C758AB0D2A9D28CD2AF22FE
:1004B900E4FDFCC3ED9FEC9E5015E4FBFA0BBB0079
:0F04C900010AEB64784A70F50DBD00010C80E468
:0104D8002201
:1002BB0002018EE493A3F8E493A34003F68001F2CA
:1002CB0008DFF48029E493A3F85407240CC8C33344
:1002DB00C4540F4420C8834004F456800146F6DF13
:1002EB00E4800B0102040810204080900576E47E28
:1002FB00019360BCA3FF543F30E509541FFEE49308
:10030B00A360010ECF54C025E060A840B8E493A3CE
:10031B00FAE493A3F8E493A3C8C582C8CAC583CAF9
:10032B00F0A3C8C582C8CAC583CADFE9DEE780BEB1
:010585000075
:10000E00E709F608DFFA8046E709F208DFFA803ED4
:10001E0088828C83E709F0A3DFFA8032E309F608C1
:10002E00DFFA8078E309F208DFFA807088828C8329
:10003E00E309F0A3DFFA806489828A83E0A3F608DD
:10004E00DFFA805889828A83E0A3F208DFFA804CB7
:10005E0080D280FA80C680D4806980F2803380108E
:10006E0080A680EA809A80A880DA80E280CA8033F7
:10007E0089828A83ECFAE493A3C8C582C8CCC5836F
:10008E00CCF0A3C8C582C8CCC583CCDFE9DEE7803F
:10009E000D89828A83E493A3F608DFF9ECFAA9F0BE
:1000AE00EDFB2289828A83ECFAE0A3C8C582C8CC14
:1000BE00C583CCF0A3C8C582C8CCC583CCDFEADE2D
:1000CE00E880DB89828A83E493A3F208DFF980CC8F
:1000DE0088F0EF60010E4E60C388F0ED2402B40488
:1000EE000050B9F582EB2402B4040050AF2323452F
:0600FE00822390005E73F6
:10010400BB010689828A83E0225002E722BBFE02F9
:09011400E32289828A83E493222C
:10011D00BB010CE58229F582E5833AF583E0225097
:10012D0006E92582F8E622BBFE06E92582F8E222E1
:0D013D00E58229F582E5833AF583E49322FB
:10014A00BB010989828A83F8E028F022500327F745
:10015A0022BBFE05F8E328F3228A838982F8E49316
:02016A00282249
:10016C00F8BB010DE58229F582E5833AF583E8F0C9
:10017C00225006E92582C8F622BBFE05E92582C875
:02018C00F2225D
:00000001FF
