:0300000002024DAC
:0C024D00787FE4F6D8FD75813A02029437
:10042D00750C10750801750915750A24750B3722A1
:07048200E535C45403FF221D
:06049000E53A540FFF22C3
:0D045C001201045430600574F012014A22B0
:0F044D00120104543064306005741012014A2209
:0D046900120104540F600574FF12014A22B5
:1003CB00BF02097B007A00790C12045CBF08097B21
:0903DB00007A00790C12044D2295
:10041C00E4FF74082FF9E4FAFB1204690FBF04F22D
:01042C0022AD
:070489007B007A00790C22D0
:0800030074082FF9E4FAFB2256
:030496007F0422BE
:100360008B358A3689378D38783A7C007D007B0062
:100370007A0079397E007F011200DE120490AB35DD
:0E038000AA36A9378F82758300E53802016C1A
:06047600010D00010E0063
:10032400E4FFC2B020B5027F02D2B0C2B1D2B1C2E2
:10033400B220B5027F08D2B2C2B320B6027F0CD27B
:10034400B3EFB50D0F600D050EE50EB40209E4F52B
:0B0354000E8F0D22E4F50E8F0D7F00D0
:01035F00227B
:1003E4007F3812040A7F0C12040A7F0612040A7F63
:0403F4000102040AF4
:1003F800D290C2918FA0D2927F0A7E0012038EC241
:0204080092223E
:10040A00C290C2918FA0D2927F0A7E0012038EC23E
:02041A0092222C
:0602D9008B358A368937DF
:1002DF00EF14600F14601114601324037036753916
:1002EF0080800D7539C0800875399080037539D0BD
:1002FF00AF3912040AE4F538AB35AA36A937853879
:10030F008275830012011DFF1203F80538E538C30B
:04031F00941040E412
:0103230022B7
:05047C00C100010F00AA
:09018E0012043D1203E412042DD9
:100197001203248F211203CB30000512041CC20066
:1001A700E4F522E522C3940450E6E4F523742425FC
:1001B70023F876200523E523B410F2E4F53412047E
:1001C7008978357C007D007E007F011200DE1204F5
:1001D70082EFB5221B12048978397C007D007E00EE
:1001E7007F011200DE7B007A0079247D70120360A4
:1001F700E4F523120496E523C39F503AAF23120078
:100207000378357C007D007E007F011200DE12043A
:1002170082EFB5221DAF2312000378397C007D00E1
:100227007E007F011200DE7B007A0079247D651253
:100237000360052380BD7B007A007924AF22120278
:06024700D905220201AA04
:03000B000203AE3F
:0403AE00C0E0C0D01B
:1003B200758C3C758AB0050FE50FC3940A4005752C
:0403C2000F00D20056
:0503C600D0D0D0E032B0
:10043D00758901758C3C758AB0D2A9D28CD2AF2248
:10038E00E4FDFCC3ED9FEC9E5015E4FBFA0BBB00A5
:0F039E00010AEB64784A70F50DBD00010C80E494
:0103AD00222D
:1002590002018EE493A3F8E493A34003F68001F22C
:1002690008DFF48029E493A3F85407240CC8C333A6
:10027900C4540F4420C8834004F456800146F6DF75
:10028900E4800B0102040810204080900476E47E8B
:10029900019360BCA3FF543F30E509541FFEE4936A
:1002A900A360010ECF54C025E060A840B8E493A331
:1002B900FAE493A3F8E493A3C8C582C8CAC583CA5C
:1002C900F0A3C8C582C8CAC583CADFE9DEE780BE14
:01048100007A
:10000E00E709F608DFFA8046E709F208DFFA803ED4
:10001E0088828C83E709F0A3DFFA8032E309F608C1
:10002E00DFFA8078E309F208DFFA807088828C8329
:10003E00E309F0A3DFFA806489828A83E0A3F608DD
:10004E00DFFA805889828A83E0A3F208DFFA804CB7
:10005E0080D280FA80C680D4806980F2803380108E
:10006E0080A680EA809A80A880DA80E280CA8033F7
:10007E0089828A83ECFAE493A3C8C582C8CCC5836F
:10008E00CCF0A3C8C582C8CCC583CCDFE9DEE7803F
:10009E000D89828A83E493A3F608DFF9ECFAA9F0BE
:1000AE00EDFB2289828A83ECFAE0A3C8C582C8CC14
:1000BE00C583CCF0A3C8C582C8CCC583CCDFEADE2D
:1000CE00E880DB89828A83E493A3F208DFF980CC8F
:1000DE0088F0EF60010E4E60C388F0ED2402B40488
:1000EE000050B9F582EB2402B4040050AF2323452F
:0600FE00822390005E73F6
:10010400BB010689828A83E0225002E722BBFE02F9
:09011400E32289828A83E493222C
:10011D00BB010CE58229F582E5833AF583E0225097
:10012D0006E92582F8E622BBFE06E92582F8E222E1
:0D013D00E58229F582E5833AF583E49322FB
:10014A00BB010989828A83F8E028F022500327F745
:10015A0022BBFE05F8E328F3228A838982F8E49316
:02016A00282249
:10016C00F8BB010DE58229F582E5833AF583E8F0C9
:10017C00225006E92582C8F622BBFE05E92582C875
:02018C00F2225D
:00000001FF
