:03000000020350A8
:0C035000787FE4F6D8FD75813B0203972E
:1003DC003D3D3D3D2D2D2D2D2D2D2D2D3D3D3D3DC1
:1003EC000020202047414D45204F564552212120C9
:1003FC002000205072657373202320726573746122
:10040C007274002020202020504155534544202058
:10041C0020202000202050726573732023207265E9
:05042C0073756D650011
:0706A900C101C18001130033
:0E000E00E4F521C2041207111206C51205ED19
:10001C001207698F22120480E5226004D200C20408
:10002C00300111120775400A12077840051204CFEF
:04003C00D200C2012B
:100040001207785005752302800D1207755005754B
:1000500023018003E4F523E52365216007D200C274
:0400600004852321CF
:030064003000B5B4
:10006700120778400812077540030201073004039E
:100077000201CBE4F5231207785036E523700A7B9B
:10008700FF7A0379DCFF12051BE523B4010B7BFF25
:100097007A0379ED7F0112051BE523B4020B7BFF81
:1000A7007A0379FE7F0212051BE523640370408003
:1000B70033E523700A7BFF7A0379DCFF12051BE522
:1000C70023B4010B7BFF7A04790F7F0112051BE52F
:1000D70023B4020B7BFF7A0479207F0212051BE50C
:1000E70023B4030B7BFF7A0379DC7F0312051B051F
:1000F70023E523C39404500302007DD2040201CBFD
:10010700E4F523E4F52474252524F876200524E571
:1001170024B410F2E4F53512076278367C007D00CE
:100127007E007F011202A0120003EFB5231B120706
:1001370062783A7C007D007E007F011202A07B007E
:100147007A0079257D50120626E4F52412077BE50F
:1001570024C39F5056AF2412075A78367C007D007F
:100167007E007F011202A0120003EF65237038AFF3
:100177002412075A783B7C007D007E007F01120223
:10018700A012076FEFC39410501DAF2412075A78BF
:100197003A7C007D007E007F011202A07B007A007E
:1001A70079257D2A120626052480A17B007A00790D
:1001B70025AF2312051B0523E523C394045003022F
:0601C700010AC204C2009F
:0301CD0002001C11
:03000B00020431BB
:10043100C0E0C0F0C083C082C0D075D000C000C091
:0D04410001C002C003C004C005C006C00712
:10044E00758C3C758AB005131205AAE513C3940288
:07045E004005751300D201F7
:10046500D007D006D005D004D003D002D001D000EB
:0B047500D0D0D082D083D0F0D0E03295
:10071100758901758C3C758AB0D2A9D28CD2AF2271
:1006C5007F381206FF7F0C1206FF7F061206FF7F9A
:0406D500010206FF19
:1006ED00D290C2918FA0D2927F017E00120689C254
:0206FD00922247
:1006FF00C290C2918FA0D2927F017E00120689C252
:02070F00922234
:06051B008B368A37893897
:10052100EF14600F14601114601324037036753AD0
:1005310080800D753AC08008753A908003753AD075
:10054100AF3A1206FFE4F539AB36AA37A938853937
:10055100827583001202DFFF1206ED0539E539C30A
:04056100941040E4CE
:010565002273
:0D06B000011200020E0000011000011100F7
:1005AA00E4FF20B2047F03801A20B0047F01801385
:1005BA0020B1047F02800C20B4047F04800520B59A
:1005CA00027F05740E2510F8A607631001E50EB523
:1005DA000F10600B6511600A850E12850E1122E458
:0205EA00F51109
:0105EC0022EC
:05076900AF12E4F512DF
:01076E002268
:0706BD00C103C10201085551
:1006D900E5085401FFE508C313F508EF6003630853
:0306E900B8AF089F
:0106EC0022EB
:02056600A903E7
:10056800E4FEEE69603674092EF8E6FCC4135407FD
:10057800FBEC541FFCEFD39B4005EF9BFB8004C3AF
:10058800EB9FFBBB0116EDD39C4005ED9CFC800462
:10059800C3EC9DFCECC394035002C3220EBE04C2FC
:0105A800D37F
:0105A900222F
:02065B00AA07EC
:10065D001206D9EF5403F5381206D9EF540F2410B2
:10066D00F539AB02FDAF38120566500FE538C433CE
:0B067D0054E04539FF74092AF8A60775
:01068800224F
:0505ED00750D20E4FA89
:1005F2001206D9EF5403F5371206D9EF540F24101F
:10060200F538AB02FDAF3712056650E4E537C43367
:0B06120054E04538FF74092AF8A607E1
:08061D000ABA04D1C203C202B3
:0106250022B2
:08000300E536C4135407FF2287
:06076F00E53B541FFF22D0
:0D0740001202C65460600574E012030C2222
:0F0731001202C6546064606005742012030C222B
:0D074D001202C6541F600574FF12030C2237
:100721001202C6541FC3940F5005740112030C2208
:100480008F36E536B403093002030205EDB20322CC
:1004900020033B200238E536B401097B007A00795D
:1004A0000D120740E536B402097B007A00790D127F
:1004B0000731E536B404097B007A00790D12074D47
:0F04C000E536B405097B007A00790D1207212279
:0904CF00200348200245E4F53643
:1004D80074092536F8E6541FF537D39400400316FF
:1004E8008005AF3612065B74092536F8E6FF541FFF
:1004F800FEE50D541FB50611EFC4135407FFE50DB3
:09050800C4135407B50702D20226
:090511000536E536C3940440BE32
:01051A0022BE
:03077500A20322BA
:03077800A20222B8
:070762007B007A00790D22F3
:08075A0074092FF9E4FAFB22F7
:03077B007F0422D6
:080626008B368A3789388D39C3
:10062E00783B7C007D007B007A00793A7E007F016A
:10063E001202A012076FEFC394105010AB36AA37F8
:0C064E00A9388F82758300E53912032E55
:01065A00227D
:10068900E4FDFCC3ED9FEC9E5015E4FBFA0BBB00A7
:0F069900010AEB64784A70F50DBD00010C80E496
:0106A800222F
:10035C0002000EE493A3F8E493A34003F68001F2A9
:10036C0008DFF48029E493A3F85407240CC8C333A2
:10037C00C4540F4420C8834004F456800146F6DF71
:10038C00E4800B01020408102040809006A9E47E52
:10039C00019360BCA3FF543F30E509541FFEE49366
:1003AC00A360010ECF54C025E060A840B8E493A32D
:1003BC00FAE493A3F8E493A3C8C582C8CAC583CA58
:1003CC00F0A3C8C582C8CAC583CADFE9DEE780BE10
:0106C4000035
:1001D000E709F608DFFA8046E709F208DFFA803E11
:1001E00088828C83E709F0A3DFFA8032E309F608FE
:1001F000DFFA8078E309F208DFFA807088828C8366
:10020000E309F0A3DFFA806489828A83E0A3F60819
:10021000DFFA805889828A83E0A3F208DFFA804CF3
:1002200080D280FA80C680D4806980F280338010CA
:1002300080A680EA809A80A880DA80E280CA803333
:1002400089828A83ECFAE493A3C8C582C8CCC583AB
:10025000CCF0A3C8C582C8CCC583CCDFE9DEE7807B
:100260000D89828A83E493A3F608DFF9ECFAA9F0FA
:10027000EDFB2289828A83ECFAE0A3C8C582C8CC50
:10028000C583CCF0A3C8C582C8CCC583CCDFEADE69
:10029000E880DB89828A83E493A3F208DFF980CCCB
:1002A00088F0EF60010E4E60C388F0ED2402B404C4
:1002B0000050B9F582EB2402B4040050AF2323456B
:0602C0008223900220736E
:1002C600BB010689828A83E0225002E722BBFE0236
:0902D600E32289828A83E4932269
:1002DF00BB010CE58229F582E5833AF583E02250D4
:1002EF0006E92582F8E622BBFE06E92582F8E2221E
:0D02FF00E58229F582E5833AF583E4932238
:10030C00BB010989828A83F8E028F022500327F781
:10031C0022BBFE05F8E328F3228A838982F8E49352
:02032C00282285
:10032E00F8BB010DE58229F582E5833AF583E8F005
:10033E00225006E92582C8F622BBFE05E92582C8B1
:02034E00F22299
:00000001FF
