:03000000020350A8
:0C035000787FE4F6D8FD75813B0203972E
:1003DC003D3D3D3D2D2D2D2D2D2D2D2D3D3D3D3DC1
:1003EC000020202047414D45204F564552212120C9
:1003FC002000205072657373202320726573746122
:10040C007274002020202020504155534544202058
:10041C0020202000202050726573732023207265E9
:05042C0073756D650011
:07068000C101C1800113005C
:0E000E00E4F521C2041206D412069C12055C11
:10001C0012072B8F221205FFE5226004D200C204C6
:10002C00300111120737400A12073A4005120480BA
:04003C00D200C2012B
:1000400012073A5005752302800D120737500575C7
:1000500023018003E4F523E52365216007D200C274
:0400600004852321CF
:030064003000B5B4
:1000670012073A400812073740030201073004031A
:100077000201CBE4F52312073A5036E523700A7BD9
:10008700FF7A0379DCFF1204CDE523B4010B7BFF74
:100097007A0379ED7F011204CDE523B4020B7BFFD0
:1000A7007A0379FE7F021204CDE523640370408052
:1000B70033E523700A7BFF7A0379DCFF1204CDE571
:1000C70023B4010B7BFF7A04790F7F011204CDE57E
:1000D70023B4020B7BFF7A0479207F021204CDE55B
:1000E70023B4030B7BFF7A0379DC7F031204CD056E
:1000F70023E523C39404500302007DD2040201CBFD
:10010700E4F523E4F52474252524F876200524E571
:1001170024B410F2E4F53512072478367C007D000C
:100127007E007F011202A0120003EFB5231B120706
:1001370024783A7C007D007E007F011202A07B00BC
:100147007A0079257D501205CAE4F52412073DE5AA
:1001570024C39F5056AF2412071C78367C007D00BD
:100167007E007F011202A0120003EF65237038AFF3
:100177002412071C783B7C007D007E007F01120261
:10018700A0120731EFC39410501DAF2412071C783B
:100197003A7C007D007E007F011202A07B007A007E
:1001A70079257D2A1205CA052480A17B007A00796A
:1001B70025AF231204CD0523E523C394045003027E
:0601C700010AC204C2009F
:0301CD0002001C11
:03000B00020431BB
:10043100C0E0C0F0C083C082C0D075D000C000C091
:0D04410001C002C003C004C005C006C00712
:10044E00758C3C758AB00513120595E513C394029D
:07045E004005751300D201F7
:10046500D007D006D005D004D003D002D001D000EB
:0B047500D0D0D082D083D0F0D0E03295
:1006D400758901758C3C758AB0D2A9D28CD2AF22AF
:10069C007F381206C27F0C1206C27F061206C27F7A
:0406AC00010206C27F
:1006B000D290C2918FA0D2927F0A7E00120660C2B1
:0206C000922284
:1006C200C290C2918FA0D2927F0A7E00120660C2AF
:0206D200922272
:0604CD008B368A378938E6
:1004D300EF14600F14601114601324037036753A1F
:1004E30080800D753AC08008753A908003753AD0C4
:1004F300AF3A1206C2E4F539AB36AA37A9388539C3
:10050300827583001202DFFF1206B00539E539C395
:04051300941040E41C
:0105170022C1
:0D068700011200020E000001100001110020
:10059500E4FF20B2047F0C800C20B0047F028005AC
:1005A50020B1027F08740E2510F8A607631001E537
:1005B5000EB50F10600B6511600A850E12850E11C0
:0405C50022E4F51126
:0105C900220F
:05072B00AF12E4F5121D
:0107300022A6
:07069400C103C102010DA525
:0C071000E50D75F06DA42459F50DFF22D5
:02051800A90335
:10051A00E4FEEE69603674082EF8E6FCC41354074C
:10052A00FBEC541FFCEFD39B4005EF9BFB8004C3FD
:10053A00EB9FFBBB0116EDD39C4005ED9CFC8004B0
:10054A00C3EC9DFCECC394035002C3220EBE04C24A
:01055A00D3CD
:01055B00227D
:02063200AA0715
:10063400120710EF5403F538120710EF540F24106B
:10064400F539AB02FDAF38120518500FE538C43345
:0B06540054E04539FF74082AF8A6079F
:01065F002278
:05055C00750C20E4FA1B
:10056100120710EF5403F537120710EF540F241040
:10057100F538AB02FDAF3712051850E4E537C43347
:0B05810054E04538FF74082AF8A60774
:08058C000ABA04D1C203C20245
:010594002244
:08000300E536C4135407FF2287
:06073100E53B541FFF220E
:0D0703001202C65460600574E012030C225F
:0F06F4001202C6546064606005742012030C2269
:1006E4001202C6541FC39402400574FE12030C2266
:1005FF008F36E536B40C0930020302055CB20322D4
:10060F0020031F20021CE536B402097B007A007913
:10061F000C120703E536B408097B007A00790C1237
:03062F0006F422AC
:09048000200349200246E4F53690
:1004890074082536F8E6541FF537C394024004165C
:10049900168005AF3612063274082536F8E6FF5481
:1004A9001FFEE50C541FB50611EFC4135407FFE5F1
:0A04B9000CC4135407B50702D20269
:0904C3000536E536C3940440BD82
:0104CC00220D
:03073700A20322F8
:03073A00A20222F6
:070724007B007A00790C2232
:08071C0074082FF9E4FAFB2236
:03073D007F042214
:0805CA008B368A3789388D3920
:1005D200783B7C007D007B007A00793A7E007F01C7
:1005E2001202A0120731EFC394105010AB36AA3793
:0C05F200A9388F82758300E53912032EB2
:0105FE0022DA
:10066000E4FDFCC3ED9FEC9E5015E4FBFA0BBB00D0
:0F067000010AEB64784A70F50DBD00010C80E4BF
:01067F002258
:10035C0002000EE493A3F8E493A34003F68001F2A9
:10036C0008DFF48029E493A3F85407240CC8C333A2
:10037C00C4540F4420C8834004F456800146F6DF71
:10038C00E4800B0102040810204080900680E47E7B
:10039C00019360BCA3FF543F30E509541FFEE49366
:1003AC00A360010ECF54C025E060A840B8E493A32D
:1003BC00FAE493A3F8E493A3C8C582C8CAC583CA58
:1003CC00F0A3C8C582C8CAC583CADFE9DEE780BE10
:01069B00005E
:1001D000E709F608DFFA8046E709F208DFFA803E11
:1001E00088828C83E709F0A3DFFA8032E309F608FE
:1001F000DFFA8078E309F208DFFA807088828C8366
:10020000E309F0A3DFFA806489828A83E0A3F60819
:10021000DFFA805889828A83E0A3F208DFFA804CF3
:1002200080D280FA80C680D4806980F280338010CA
:1002300080A680EA809A80A880DA80E280CA803333
:1002400089828A83ECFAE493A3C8C582C8CCC583AB
:10025000CCF0A3C8C582C8CCC583CCDFE9DEE7807B
:100260000D89828A83E493A3F608DFF9ECFAA9F0FA
:10027000EDFB2289828A83ECFAE0A3C8C582C8CC50
:10028000C583CCF0A3C8C582C8CCC583CCDFEADE69
:10029000E880DB89828A83E493A3F208DFF980CCCB
:1002A00088F0EF60010E4E60C388F0ED2402B404C4
:1002B0000050B9F582EB2402B4040050AF2323456B
:0602C0008223900220736E
:1002C600BB010689828A83E0225002E722BBFE0236
:0902D600E32289828A83E4932269
:1002DF00BB010CE58229F582E5833AF583E02250D4
:1002EF0006E92582F8E622BBFE06E92582F8E2221E
:0D02FF00E58229F582E5833AF583E4932238
:10030C00BB010989828A83F8E028F022500327F781
:10031C0022BBFE05F8E328F3228A838982F8E49352
:02032C00282285
:10032E00F8BB010DE58229F582E5833AF583E8F005
:10033E00225006E92582C8F622BBFE05E92582C8B1
:02034E00F22299
:00000001FF
